:100000000C94FE000C941F010C941F010C941F0112
:100010000C941F010C941F010C941F010C941F01E0
:100020000C941F010C941F010C941F010C941F01D0
:100030000C941F010C9489060C941B070C941F014F
:100040000C941F010C941F010C941F010C941F01B0
:100050000C941F010C941F010C941F010C941F01A0
:100060000C941F010C941F010C941F010C941F0190
:100070000C941F010C941F010C941F010C941F0180
:100080000C941F010C941F010C941F010C941F0170
:100090000C941F010C941F010C941F010C941F0160
:1000A0000C941F010C941F010C941F010C94570514
:1000B0000C949E040C941F010C941F010C941F01BE
:1000C0000C941F010C941F010C941F010C941F0130
:1000D0000C941F010C941F010C941F010C941F0120
:1000E0000C941F010C941F010C941F010C941F0110
:1000F0000C941F010C941F010C941F010C941F0100
:100100000C9445040C941F010C941F010C941F01C6
:100110000C941F010C941F010C941F010C941F01DF
:100120000C941F010C941F010C941F010C941F01CF
:100130000C941F010C941F010C941F010C941F01BF
:100140000C941F010C941F010C941F010C941F01AF
:100150000C941F010C941F010C941F010C941F019F
:100160000C941F010C941F010C941F010C941F018F
:100170000C941F010C941F010C941F010C941F017F
:100180000C941F010C941F010C941F010C941F016F
:100190000C941F010C941F010C941F010C941F015F
:1001A0000C94D5010C941F010C941F010C941F0199
:1001B0000C941F010C941F010C941F010C941F013F
:1001C0000C941F010C941F010C941F010C941F012F
:1001D0000C941F010C941F010C941F010C94AB0193
:1001E0000C9481010C941F010C941F010C941F01AD
:1001F0000C941F010C941F010C941F0111241FBEAD
:10020000CFEFCDBFDFE3DEBF00E00CBF10E2A0E028
:10021000B0E2E0E1F7E100E00BBF02C007900D9211
:10022000AA32B107D9F721E2AAE2B0E201C01D92D9
:10023000AE3EB207E1F70E94D7050C94860B0C94F2
:100240000000E0EAF6E089E0818386E0828342E014
:1002500060EA7BE080E491E20E940C0320E041E050
:1002600060EA76E080E491E20E941C03E091402184
:10027000F091412183E0858383818F7C806183833A
:1002800087E6868317828481886084838481806185
:10029000848380E491E20E94450382E08093A90672
:1002A000089561E080E491E20C945D0380E491E2C2
:1002B0000C9436030F931F93CF93DF93CDB7DEB724
:1002C0009E01285F3F4FF901419151919F0160E0EC
:1002D00071E08AE290E20E949F080AE210E2F801CF
:1002E0006081662349F080E491E20E947E038823C6
:1002F000B1F30F5F1F4FF3CFDF91CF911F910F919C
:1003000008951F920F920FB60F9211240BB60F9201
:100310002F933F934F935F936F937F938F939F930D
:10032000AF93BF93EF93FF9380E491E20E94BC03ED
:10033000FF91EF91BF91AF919F918F917F916F91BD
:100340005F914F913F912F910F900BBE0F900FBE79
:100350000F901F9018951F920F920FB60F921124B5
:100360000BB60F922F933F934F935F936F937F93AF
:100370008F939F93AF93BF93EF93FF9380E491E2AA
:100380000E949F03FF91EF91BF91AF919F918F9139
:100390007F916F915F914F913F912F910F900BBE85
:1003A0000F900FBE0F901F9018951F920F920FB6CF
:1003B0000F9211240BB60F922F933F934F935F939D
:1003C0006F937F938F939F93AF93BF93EF93FF931D
:1003D00080E491E20E94EA03FF91EF91BF91AF9117
:1003E0009F918F917F916F915F914F913F912F914D
:1003F0000F900BBE0F900FBE0F901F901895FC0131
:100400009081907F692B60830895FC019181987F92
:10041000692B61830895FC0196819C7F692B66831B
:100420000895611102C090E001C090E2842B982BE6
:100430009093520008956F71862B80935500089514
:10044000E0E5F0E09081282F209592239083908121
:1004500089230895FC0181858C7F682B6187428701
:100460000895FC018185837F682B61874387089508
:10047000EF920F93FC010E29411102C090E001C0E0
:1004800090E8092B211102C090E001C090E4092BF3
:100490009FB7F8946093B000008B9FBF0F91EF90CF
:1004A0000895AF92CF92EF920F93FC016083718316
:1004B000428353831482C11002C080E001C080E8EF
:1004C0009A2D9064892B211102C090E001C090E226
:1004D000892B0061802BDB018C93A081B181119667
:1004E000EC92158216820280F381E02D80EA8183EE
:1004F0000F91EF90CF90AF900895FC0160837183CE
:100500004860DB0111964C93A081B18115962C9324
:100510000190F081E02D81E084830895FC01A081A9
:10052000B18114968C91149782FF02C094E001C0AF
:1005300093E0908F886014968C93178A0895CF93D8
:10054000DF93FC0123899489A081B18114968C9159
:10055000149784FF05C083E013968C9385E01AC03E
:100560008589821758F48589EF01C80FD11D8B81C9
:1005700017968C9385898F5F858B0EC08689891726
:1005800028F48281816016968C9306C083E01396CE
:100590008C9381E0808F178ADF91CF910895FC01C1
:1005A0008689A081B181883060F417968C919689F4
:1005B000DF01A90FB11D1B968C9386898F5F868BF7
:1005C00006C083E013968C9382E0808F178A94890B
:1005D0008689A081B181891720F482E013968C93DB
:1005E000089587E013968C9381E0808F178A089591
:1005F000DC01ED91FC912481322F3C7011F00C94C0
:100600008E0226FD0C949F0227FD0C94CF0226E05B
:10061000FC01208F178A0895FC0160837183428357
:10062000E957FF4F1082339710823197108233962B
:100630001082319710820895FC01E957FF4F31E095
:1006400030833196608371833296532F01C0550FEA
:100650004A95EAF75083319601C0330F2A95EAF79D
:10066000308331961082319610820895FC01E9574B
:10067000FF4F2081222341F031960190F081E02D3F
:1006800081858C7F826081870895FC01E957FF4F47
:100690002081222389F031960190F081E02D308570
:1006A000FC01E657FF4F2081232331E009F030E0C1
:1006B000FC01E457FF4F30830895FC01E957FF4FD9
:1006C0002081222369F031960190F081E02DDC0138
:1006D000A557BF4F8C91662311F0868308958583BB
:1006E0000895FC01EB57FF4F9081319620819F5F69
:1006F0009F7381E0921301C080E008951F93CF9310
:10070000DF93EC01162F0E9471038823A1F0DE0114
:10071000AB57BF4F9C91FE01E90FF11DED5BFF4F01
:1007200010839F5F9F739C93E881F98193819C7FE5
:100730002A81922B9383DF91CF911F910895CF93BC
:10074000DF93FC01DC01AD57BF4F9C919F5F9F730E
:10075000EF01CC57DF4F2881C081D181888192176A
:1007600039F02C91E20FF11D83839C9381E001C04D
:1007700080E0DF91CF910895CF93DF93FC01E9579B
:10078000FF4F2081222319F03596208101C021E0FE
:10079000DC01AA57BF4F4C91FC01EB57FF4F308152
:1007A000FC01C081D181431711F0211104C08B815C
:1007B0008C7F8B830CC02C91820F911DFC01ED5B13
:1007C000FF4F808188838C918F5F8F738C93DF9133
:1007D000CF910895CF93DF93EC01FC01E957FF4FD0
:1007E0008081882341F0CE010E944503FE01E45739
:1007F000FF4F808101C081E0FE01EA57FF4F208159
:10080000DE01AB57BF4F9C912917E9F08823D9F03F
:1008100088819981DC0111962C9125FD0DC02081E4
:10082000DE01A20FB11DAD5BBF4F2C91DC012C93FB
:1008300080818F5F8F738083E881F98183818C7FD2
:100840009A81892B8383DF91CF910895AF92CF92C4
:10085000EF920F93E0910020F091012081E08183DD
:100860008583AA24A394CC24C394E12C00E020E047
:1008700040E456E060EC78E08EEC91E20E94510298
:100880000F91EF90CF90AF9008951F920F920FB6F7
:100890000F9211240BB60F922F933F934F935F93B8
:1008A0006F937F938F939F93AF93BF93EF93FF9338
:1008B0008091680685FF22C00E94E40621E0FC01C9
:1008C0002483809124068F77809324060E94E40677
:1008D000FC0181818823F9F00E94E70625E0FC01F4
:1008E00026830E94E70624E630E0FC012783308758
:1008F0000E94E70624E0FC0120830DC00E94E4066C
:10090000FC01148281E08093890680E180932506B2
:1009100080EC80930506FF91EF91BF91AF919F917D
:100920008F917F916F915F914F913F912F910F9098
:100930000BBE0F900FBE0F901F9018951F920F9235
:100940000FB60F9211240F900FBE0F901F901895A5
:10095000EF920F93CF93E0E0F6E08BEF808383EF8D
:100960008583E12C00E020E041E06AE180E096E050
:100970000E94380208E120E040E064E080E096E078
:100980000E943802E0E2F6E08FE18083C0E1C58397
:1009900000E120E040E060E680E296E00E9438025C
:1009A00008E220E040E063E080E496E00E94380244
:1009B00000E020E040E068E180E496E00E94380238
:1009C0004CE060E080E496E00E942A02E0E6F6E077
:1009D00082E1808382E08583C68308E220E040E0F4
:1009E00062E180E696E00E94380200E020E040E00C
:1009F00060E280E696E00E94380200E120E040E0FC
:100A000060EC80E696E00E94380240E260E080E61A
:100A100096E00E942A0284E080938006EE24E3940C
:100A200000E020E040E061E080E896E00E943802CB
:100A3000E12C20E040E06AE080E896E00E94380285
:100A400020E041E064E080E896E00E9438024AE05D
:100A500060E080E896E00E942A0241E060E080E8E1
:100A600096E00E943102E0EAF6E089E0808381E0CE
:100A7000858320E040E062E380EA96E00E9438024D
:100A800000E120E040E060EC80EA96E00E9438025D
:100A900042E060E080EA96E00E942A0240E360E0E3
:100AA00080EA96E0CF910F91EF900C9431021F9263
:100AB0000F920FB60F9211240BB60F922F933F9304
:100AC0004F935F936F937F938F939F93AF93BF9356
:100AD000CF93DF93EF93FF93C09188060E94E406C3
:100AE000FC01D681DC270E94E406FC01C683D1FD0F
:100AF00018C0D3FF47C0C3FF06C00E94E40621E030
:100B0000FC0123833FC00E94E406FC0113820E9483
:100B1000DE06C2FF37C00E94E40621E0FC0120830C
:100B200022C0C1FD11C0809184068B7F8093840612
:100B30000E94E40621E0FC0120830E94E406FC01FF
:100B400012820E94DE060FC00E94E70661E00E944A
:100B500014070E94E70660ED77E00E9417070E94E5
:100B6000E406FC0110820E94E406FC0180818823D7
:100B700021F0809104068E7F03C08091040681607D
:100B800080930406FF91EF91DF91CF91BF91AF91D8
:100B90009F918F917F916F915F914F913F912F9195
:100BA0000F900BBE0F900FBE0F901F9018954BE04B
:100BB00060E080EC0E941102809150008960809377
:100BC00050008091510083FFFCCF62E080EC0E94D6
:100BD0001B028091500080618093500080915100F1
:100BE00084FFFCCF88ED84BF84E08093400081E0E7
:100BF0000E9420020E94A8040E947A0680E480934A
:100C0000A7098CE08093A60983E08093A5090E9440
:100C100021010E94FA068091CC0188608093CC016A
:100C20008091880681FF10C00E94E406FC011082BA
:100C30000E94E70661E00E9414070E94E70660ED4B
:100C400077E00E94170714C00E94E40621E0FC012F
:100C500020830E94E406FC018081882321F080919A
:100C600004068E7F03C08091040681608093040691
:100C70000E94E70668EE73E003960E9417078091D2
:100C80008906837F846080938906809189068C7FA2
:100C90008160809389060E9456018091A200816044
:100CA0008093A2008091A20082608093A200789439
:100CB0000E94DF0620912806FC0182898F7020792E
:100CC000282B2093240686E090E29F938F930E9426
:100CD0005A010E9451010F900F908AEF90E02091ED
:100CE0003F212223E1F310923F218093042090932F
:100CF0000520F5CF23E240E460E874E085ED91E261
:100D00000E947D0288E48093810408958AE291E242
:100D100008951F920F920FB60F9211240BB60F92E7
:100D20002F933F934F935F936F937F938F939F93F3
:100D3000AF93BF93EF93FF9380E48093070685ED15
:100D400091E20E94F802FF91EF91BF91AF919F91C4
:100D50008F917F916F915F914F913F912F910F9064
:100D60000BBE0F900FBE0F901F901895E0E2F6E0BB
:100D700084818068848380E8818380EB809341064E
:100D8000E0E6F6E084818160848389E081830E94CB
:100D9000260481E0809384040E948606FC01108270
:100DA0000E948606FC0111820E94860626E030E041
:100DB000FC01238334831092392108950895809192
:100DC000022090910320089588E391E208958FE234
:100DD00091E208950E94E406FC018081882321F0BD
:100DE000809104068E7F03C0809104068160809309
:100DF00004060895CF93DF93C0E0D8E08DE790E03C
:100E00008EA39FA360E080E098E00E9405021C8210
:100E100066E080E098E00E94FF0161E080E098E0F9
:100E2000DF91CF910C940B02FC0160830895FC01CB
:100E30006183728308951F920F920FB60F9211244F
:100E40000BB60F920F931F932F933F934F935F9384
:100E50006F937F938F939F93AF93BF93CF93DF93C2
:100E6000EF93FF938091042090910520019721F446
:100E700081E080933F210FC0809104209091052054
:100E8000892B49F08091042090910520019780934F
:100E90000420909305200E94E706EC018E818330A8
:100EA000B9F128F48130A1F08230E1F091C08530B1
:100EB00009F468C008F445C0863009F089C00E9472
:100EC000E40621E0FC01258380E4809306067FC0D0
:100ED0008F81988501978F839887019709F078C053
:100EE00082E06DC01E820E94860622E1FC01218301
:100EF0000E948606FC018081811104C00E94860642
:100F0000FC0111820E94860623E0FC01208312C0AE
:100F10008F81988501978F839887019709F058C032
:100F20001E820E94860624E0FC0120830E94860621
:100F3000FC01118280EE8093860488E58093810411
:100F400047C08091480611E010934C0692E09093C0
:100F500049068C70E1F50E948606FC0110830E9410
:100F60008606FC01118280EE8093860488E58093DA
:100F700081040E94E406FC01118285E08E838BE4EB
:100F800090E022C08F8198850197D9F40E94E706EE
:100F9000FC01018112810E94E706FC018081909191
:100FA000680695FF15C0882321F0853089F4012B50
:100FB00079F08091240680688093240686E08E83F1
:100FC00007C08F81988501978F83988701C01E8203
:100FD0000E94E706EC018881833009F443C028F4BD
:100FE000813051F08230E9F093C0843009F458C068
:100FF000853009F47DC08CC089819A8101978983ED
:101000009A83892B09F084C00E94E406FC01808148
:1010100081116CC08091840684608093840682E094
:101020000DC00E94E406FC018381882369F0809151
:10103000880684FF54C00E94B60683E0888388EE49
:1010400093E089839A8364C089819A810197898317
:101050009A83892B09F05CC0809184068B7F8093F2
:1010600084063DC089819A81019789839A83892B5F
:1010700009F04EC08091640680618093640680917F
:1010800064068D7F8093640684E0888388E893E11A
:1010900089839A838091640682608093640638C055
:1010A0008091680685FF14C011E010936C06809152
:1010B00069068C7F82608093690685E0888380E082
:1010C0009AE089839A830E94E406FC01148320C07D
:1010D00089819A81019789839A83892BC9F40E9417
:1010E000E40621E0FC0120830E94EA06188210C079
:1010F00089819A81892B21F089819A810197A1CFD9
:101100008091240687FF04C0188280E18093260620
:10111000FF91EF91DF91CF91BF91AF919F918F910F
:101120007F916F915F914F913F912F911F910F91FF
:101130000F900BBE0F900FBE0F901F9018950F933E
:101140001F93CF93DF93CDB7DEB72E97CDBFDEBF12
:101150008C01FA0186E08C8309831A8377FF02C031
:1011600060E070E8CB0101978D839E83A901BF01E8
:10117000CE0101960E94D2084D815E8157FD0AC0C2
:101180002F813885421753070CF49A01F801E20FBA
:10119000F31F10822E96CDBFDEBFDF91CF911F913E
:1011A0000F9108952F923F924F925F926F927F928C
:1011B0008F929F92AF92BF92CF92DF92EF92FF9267
:1011C0000F931F93CF93DF93CDB7DEB72B97CDBF90
:1011D000DEBF6C017B018A01FC01168217828381CC
:1011E00081FFCCC1CE0101963C01F6019381F7014C
:1011F00093FD859193FF81917F01882309F4BAC102
:10120000853239F493FD859193FF81917F01853279
:1012100029F4B60190E00E94EC0AE7CF912C212C32
:10122000312CFFE1F315D8F08B3279F038F48032AD
:1012300079F08332A1F4232D20611DC08D3261F03D
:10124000803369F4232D216016C0832D8260382EEF
:10125000E32DE4603E2E2AC0F32DF8601DC037FC5C
:101260002DC020ED280F2A3040F08E32B9F436FC24
:1012700081C1232D2064322E19C036FE06C08AE0BB
:10128000989E200D1124922E11C0EAE02E9E200D72
:101290001124222EF32DF0623F2E08C08C3621F44B
:1012A000832D8068382E02C0883641F4F70193FD03
:1012B000859193FF81917F018111B3CF982F9F7DFD
:1012C0009554933028F40C5F1F4F9FE399830DC012
:1012D000833631F0833771F0833509F059C021C06E
:1012E000F801808189830E5F1F4F88248394912C9D
:1012F000530113C02801F2E04F0E511CF801A080E9
:10130000B18036FE03C0692D70E002C06FEF7FEF41
:10131000C5010E94E10A4C018201F32DFF773F2EA7
:1013200016C0280122E0420E511CF801A080B180B5
:1013300036FE03C0692D70E002C06FEF7FEFC5017C
:101340000E94D60A4C01F32DF0683F2E820133FC37
:101350001BC0822D90E088169906B0F4B60180E299
:1013600090E00E94EC0A2A94F4CFF50137FC8591B5
:1013700037FE81915F01B60190E00E94EC0A2110D6
:101380002A9421E0821A91088114910471F7E8C02F
:10139000843611F0893641F5F80137FE07C06081C7
:1013A0007181828193810C5F1F4F08C060817181C0
:1013B000072E000C880B990B0E5F1F4FF32DFF7645
:1013C0003F2E97FF09C090958095709561957F4F4E
:1013D0008F4F9F4FF0683F2E2AE030E0A3010E941C
:1013E000280B882E861845C0853731F4232D2F7E93
:1013F000B22E2AE030E025C0932D997FB92E8F368A
:10140000C1F018F4883579F0B5C0803719F0883705
:1014100021F0B0C0E92FE061BE2EB4FE0DC0FB2D5F
:10142000F460BF2E09C034FE0AC0292F2660B22EF8
:1014300006C028E030E005C020E130E002C020E135
:1014400032E0F801B7FE07C060817181828193812B
:101450000C5F1F4F06C06081718180E090E00E5FDD
:101460001F4FA3010E94280B882E8618FB2DFF77A3
:101470003F2E36FE0DC0232D2E7FA22E891458F448
:1014800034FE0BC032FC09C0832D8E7EA82E05C011
:10149000B82CA32C03C0B82C01C0B92CA4FE0FC0DB
:1014A000FE01E80DF11D8081803321F49A2D997E93
:1014B000A92E09C0A2FE06C0B394B39404C08A2D1D
:1014C000867809F0B394A3FC11C0A0FE06C0B21444
:1014D00088F4280C922C9B180EC0B21460F4B6014C
:1014E00080E290E00E94EC0AB394F7CFB21418F4B3
:1014F0002B1802C0982C212CA4FE10C0B60180E34A
:1015000090E00E94EC0AA2FE17C0A1FC03C088E78D
:1015100090E002C088E590E0B6010CC08A2D867884
:1015200059F0A1FE02C08BE201C080E2A7FC8DE26F
:10153000B60190E00E94EC0A891438F4B60180E309
:1015400090E00E94EC0A9A94F7CF8A94F301E80D98
:10155000F11D8081B60190E00E94EC0A8110F5CF68
:10156000222009F442CEB60180E290E00E94EC0A0B
:101570002A94F6CFF6018681978102C08FEF9FEF04
:101580002B96CDBFDEBFDF91CF911F910F91FF90C2
:10159000EF90DF90CF90BF90AF909F908F907F9013
:1015A0006F905F904F903F902F900895FC010590B1
:1015B000615070400110D8F7809590958E0F9F1F55
:1015C0000895FC016150704001900110D8F780959A
:1015D00090958E0F9F1F08950F931F93CF93DF93C6
:1015E000FB01238121FD03C08FEF9FEF2CC022FF61
:1015F00016C046815781248135814217530744F430
:10160000A081B1819D012F5F3F4F208331838C9357
:10161000268137812F5F3F4F2683378314C08B018C
:10162000EC01FB010084F185E02D1995892BE1F691
:10163000D80116968D919C911797019616968D93C9
:101640009C931797CE01DF91CF911F910F91089531
:10165000FA01AA27283051F1203181F1E8946F93E3
:101660006E7F6E5F7F4F8F4F9F4FAF4FB1E03ED089
:10167000B4E03CD0670F781F891F9A1FA11D680F27
:10168000791F8A1F911DA11D6A0F711D811D911D5A
:10169000A11D20D009F468943F912AE0269F1124CF
:1016A0003019305D3193DEF6CF010895462F477033
:1016B000405D4193B3E00FD0C9F7F6CF462F4F708E
:1016C000405D4A3318F0495D31FD4052419302D0EC
:1016D000A9F7EACFB4E0A695979587957795679592
:1016E000BA95C9F700976105710508959B01AC0192
:1016F0000A2E06945795479537952795BA95C9F7B9
:10170000620F731F841F951FA01D0895F894FFCFCB
:1017100060060010E8030D0A494E522054434D2044
:10172000636F6E74726F6C20696E7465726661634C
:0A173000652072656164790D0A00FE
:00000001FF
