:100000000C94F4000C9415010C9415010C9415013A
:100010000C9415010C9415010C9415010C94150108
:100020000C9415010C9415010C9415010C941501F8
:100030000C9415010C9415010C9415010C941501E8
:100040000C9415010C9415010C9415010C941501D8
:100050000C9415010C9415010C9415010C941501C8
:100060000C9415010C9415010C9415010C941501B8
:100070000C9415010C9415010C9415010C941501A8
:100080000C9415010C9415010C9415010C94150198
:100090000C9415010C9415010C9415010C94150188
:1000A0000C9415010C9415010C9415010C94150178
:1000B0000C9415010C9415010C9415010C94150168
:1000C0000C9415010C9415010C9415010C94150158
:1000D0000C9415010C9415010C9415010C94150148
:1000E0000C9415010C9415010C9415010C94150138
:1000F0000C9415010C9415010C9415010C94150128
:100100000C9415010C9415010C9415010C94150117
:100110000C9415010C9415010C9415010C94150107
:100120000C9415010C9415010C9415010C941501F7
:100130000C9415010C9415010C9415010C941501E7
:100140000C9415010C9415010C9415010C941501D7
:100150000C9415010C9415010C9415010C941501C7
:100160000C9415010C9415010C9415010C941501B7
:100170000C9415010C9415010C9415010C941501A7
:100180000C9415010C9415010C9415010C94150197
:100190000C9415010C9415010C9415010C94150187
:1001A0000C9415010C9415010C9415010C94150177
:1001B0000C9415010C9415010C9415010C94150167
:1001C0000C9415010C9415010C9415010C94150157
:1001D0000C9415010C9415010C9415010C94150147
:1001E0000C9415010C94150111241FBECFEFCDBF47
:1001F000DFE3DEBF00E00CBF10E2A0E0B0E2EAE027
:10020000F0E100E00BBF02C007900D92A63CB107E1
:10021000D9F721E2A6ECB0E201C01D92A933B207E2
:10022000E1F70E9417010C9403080C9400000E944F
:100230005B010E948D01C82F89E290E20E94F604C2
:1002400086E190E2CC2311F089E090E20E94F6046E
:10025000C0E4DFE10E94FE010E9434058091C620C7
:100260009091C720A091C820B091C9200196A11DEE
:10027000B11D803523EC9207A105B10580F4809370
:10028000C6209093C720A093C820B093C9208BE0CC
:1002900090E00197F9F2FE013197F1F7FACF109251
:1002A000C6201092C7201092C8201092C9208EE25A
:1002B0000E94EE04ECCFCF93DF93CDB7DEB7259746
:1002C000CDBFDEBF0E947B020E94F30285E0E0E02A
:1002D000F0E2DE01119601900D928A95E1F7CE01D0
:1002E00001960E9495040E9425050E9416030E9413
:1002F0003A030E94B3030E94C3030E94E0030E94DA
:10030000980381E090E08093CE209093CF202596B3
:10031000CDBFDEBFDF91CF910895EF92FF920F9393
:100320001F93CF93DF9300D000D0CDB7DEB781E02D
:100330000E94FC020E941F030E946D0380E593EC63
:100340000E94A803182F811111C084E090E08093CF
:10035000CE209093CF20812F2696CDBFDEBFDF9198
:10036000CF911F910F91FF90EF90089510E4E12E2F
:100370001DE0F12E03E010E020E533EC40E050E01A
:1003800060E573EC80E090E00E944D04182F882314
:10039000E1F20E94750381E00E94CC03000000009E
:1003A000000080E00E94CC030E94D603CE01059697
:1003B0000E9406038D818093CB208E818093CA207A
:1003C0000E946E038093CC200E94EE038093CD2088
:1003D0008091CB20898381E08A838091CD208B839B
:1003E0008091CC208C83CE0101960E94C4020E9491
:1003F000D4020E94160583E090E0A9CFCF93DF934B
:1004000000D000D0CDB7DEB7CE0105960E9406031E
:100410008D818093CB208E818093CA200E946E03B1
:100420008093CC200E94EE038093CD208091CB203E
:10043000882321F08091CA20882311F181E00E9455
:10044000880284E090E08093CE209093CF200E9499
:100450007B038091CB20898381E08A838091CD20AA
:100460008B838091CC208C83CE0101960E94C402A4
:100470000E94D4022696CDBFDEBFDF91CF910895B2
:100480008091CE209091CF20049709F78091CC20C5
:100490008823E9F28091CD208823C9F283E090E09F
:1004A000D2CF0F931F93CF93DF938C01EB01DA012F
:1004B000A9013091D3208091D32021E02827909169
:1004C000D0209923B1F09091D120992391F090916F
:1004D000D220992371F0817091E09827F8019083E0
:1004E00038832C93FA018083DF91CF911F910F9174
:1004F000089580E0F0CFE0E0F6E081EE818381E0D6
:10050000868380E2868380E4858380E885830895FE
:10051000882321F081E080930506089581E080938F
:1005200006060895882321F080E280930506089549
:1005300080E2809306060895882321F080E480936A
:100540000506089580E4809306060895882321F027
:1005500080E880930506089580E880930606089554
:100560001F93CF93DF93162FD42FC22F0E948802A0
:10057000812F0E9492028D2F0E949C028C2FDF916E
:10058000CF911F910C94A602FC01892B61F0808110
:100590009181A281B3818093D0209093D120A093A8
:1005A000D220B093D3200895CF93DF9300D00F9241
:1005B000CDB7DEB79E012F5F3F4FAE014E5F5F4F5D
:1005C000BE016D5F7F4FCE0104960E9451022981CA
:1005D0004A816B818C810E94B0022496CDBFDEBF20
:1005E000DF91CF910895E0E8F6E086E0818382E034
:1005F000858384E086830895882321F084E08093B6
:100600008506089584E0809386060895FC01892B71
:1006100061F0909188068091280693FB992790F9C4
:10062000908386FB882780F981830895E0E8F6E0CF
:1006300080EF818380E1858380EA8683089580E16D
:10064000809386068FE98093C3088091C20887FF54
:10065000FCCF8091C30883E01092C3089091C20838
:1006600097FFFCCF9091C3088150B1F780E1809350
:1006700085060895A0E4B6E090EA11969C93119740
:1006800020E412962C931297E0EAF6E080E381834F
:10069000228316969C9386830895E0EAF6E080E232
:1006A000858300000000868308958091A80686FB5C
:1006B000882780F90895CF93DF93EC01209721F4E8
:1006C00080E0DF91CF9108950E9455032197811119
:1006D000F8CF000000000000F1CF08950E945503FC
:1006E0008093D4208091D42008950E944D0300006F
:1006F000000000000895CF93DF938091D5208823D8
:10070000A9F08091D42081709091D520C1E0D0E0F3
:10071000992321F0C091D42091E0C9270E94920230
:100720008C2F8170DF91CF910C949C0280E0EBCFF5
:100730000E943A0380E00E94920281E00E949C02A3
:100740001092D5200E9455038093D4200C947B03F3
:10075000CF930E945B03C82F8093D4200E947B0319
:100760008C2FCF910895E0E6F6E090EB918380E442
:100770008283A0E8B6E081E011968C93119796836E
:1007800016968C930895E0E2F6E08FE3818383E090
:1007900086838CE385830895882321F080E280930B
:1007A0002606089580E28093250608958CE18093C3
:1007B000250608950000000000000895089508959A
:1007C000E0E6F6E082E081839CE0928385830895F1
:1007D0008091680682FB882780F9089580916806D9
:1007E00083FB882780F90895CF92DF92EF92FF92E2
:1007F0006B017C01C114D104E104F10431F480E007
:10080000FF90EF90DF90CF9008950E94E80391E071
:10081000C91AD108E108F108882319F00E94DA0307
:10082000E9CF81E0EDCFCF92DF92EF92FF926B01A3
:100830007C01C114D104E104F10431F480E0FF90A3
:10084000EF90DF90CF9008950E94E80391E0C91ADD
:10085000D108E108F1088111F2CF0E94DA03E9CF53
:10086000CF92DF92EF92FF926B017C01C114D10411
:10087000E104F10431F480E0FF90EF90DF90CF903D
:1008800008950E94EE0391E0C91AD108E108F10829
:100890008111F2CF0E94DA03E9CF7F928F929F926B
:1008A000AF92BF92CF92DF92EF92FF920F931F937E
:1008B000CF93DF934B015C016901D42FC52F0E94B8
:1008C000DE0382E0782E709266060E94DA03709250
:1008D0006506B401C5010E94F403811110C0C0E097
:1008E0008C2FDF91CF911F910F91FF90EF90DF90B0
:1008F000CF90BF90AF909F908F907F900895B6015A
:100900008D2F9C2F0E941304882349F3B701C8013F
:100910000E943004C82F882311F30E94DF03E0CF28
:100920008091A10B85FFFCCF0895CF92DF92EF92CB
:10093000FF92CF93DF93EC0188E08093A10684E0DF
:100940008093A2061092A40B83E08093A50B2097BE
:1009500049F0C880D980EA80FB80C114D104E10449
:10096000F10431F4C12C92ECD92EEE24E394F12C55
:1009700084E0CC0CDD1CEE1CFF1C8A95D1F760E0F6
:1009800078E488EE91E0A70196010E94490681E093
:10099000C81688E4D80688EEE80681E0F80620F458
:1009A00021503109410951092093A60B832F8F70E3
:1009B0008093A70B209781F08C81882369F088E1D0
:1009C0008093A40B000000000000DF91CF91FF9006
:1009D000EF90DF90CF90089588E0F2CFCF93C82FAB
:1009E0000E949004C093A00BCF9108951F93CF93C2
:1009F000DF93EC01892B19F01991111104C0DF91DB
:100A0000CF911F9108950E9490041093A00BF4CFF2
:100A1000FC01892B49F08091A10B87FF05C08091D3
:100A2000A00B808381E0089580E00895CF93DF9349
:100A30000E949004C0EADBE08DE088830E9490046D
:100A400086E08883DF91CF9108951092D620089593
:100A50008DE00E94EE0486E00C94EE048DE00E948E
:100A6000EE0485E10C94EE04CF93DF930F92CDB7A3
:100A7000DEB7CE0101960E940805811104C00F90D7
:100A8000DF91CF91089589818D3071F46091D620E6
:100A900070E0FB01E952FF4D108287ED90E20E9469
:100AA00047061092D620E5CF8A3019F3E091D62080
:100AB000EF3548F491E09E0F9093D620F0E0E95294
:100AC000FF4D8083D6CF1092D6200E942E05D1CF25
:100AD000FC01CF01309729F021912032D1F3293048
:100AE000C1F308956F927F928F929F92AF92BF92BF
:100AF000CF92DF92EF92FF920F931F93CF93DF93EA
:100B000000D000D0CDB7DEB70097A1F40E942E052B
:100B10002696CDBFDEBFDF91CF911F910F91FF9041
:100B2000EF90DF90CF90BF90AF909F908F907F908D
:100B30006F9008950E946805FC018081882331F33D
:100B40008091052090910620A0910720B091082067
:100B500089839A83AB83BC838F01CE0101964C01BC
:100B6000F12CE12C5C01702E612EF801C1908F01F7
:100B7000CC2051F0D12CC6010E94BC07892B21F456
:100B8000F3E0EF16F10429F5F501EE0DFF1D1082DB
:100B90000CE910E2F801619171918F01C5010E9489
:100BA000CD07892B09F45DC0F0E2063C1F0791F7E1
:100BB00004E910E2F801619171918F01C5010E9471
:100BC000CD07892B09F44DC0F0E20C391F0791F7CE
:100BD0009DCFC6010E94C507F40181934F01FFEF2D
:100BE000EF1AFF0AC0CF65E470E2C5010E94CD078D
:100BF000892B09F049C0872D962D0E9468058C012C
:100C0000009709F441C0FC0180818823E9F11D822D
:100C10001E824AE050E0BE016B5F7F4FC8010E9418
:100C20006B06462F572FBC018D819E81009761F185
:100C30000817190749F14C3051056105710520F578
:100C40000E946805FC01892BF9F080818823E1F07E
:100C50004AE050E0BE016B5F7F4FCF010E946B0600
:100C600013C089818F3409F0BECF9A81892F877F85
:100C7000863409F0B8CF8B818111B5CF81E09E34E5
:100C800009F080E00E94FC020E94280541CF0C94EC
:100C90007205A1E21A2EAA1BBB1BFD010DC0AA1FE3
:100CA000BB1FEE1FFF1FA217B307E407F50720F0D5
:100CB000A21BB30BE40BF50B661F771F881F991F50
:100CC0001A9469F760957095809590959B01AC0199
:100CD000BD01CF0108954F925F926F927F928F92E4
:100CE0009F92AF92BF92CF92DF92EF92FF920F93BB
:100CF0001F93CF93DF9300D000D0CDB7DEB78D83A5
:100D00009E836B018A016115710529F0ED81FE81D9
:100D1000DB01ED93FC930115110529F0C801029741
:100D2000839708F00AC1AD80BE8095012F5F3F4FC9
:100D30002D833E83D501FC908F2D90E00E94BC074F
:100D4000892B89F7BDE2FB122BC0ED81FE81F0807B
:100D500095012E5F3F4F2D833E83EE24E3940115D2
:100D6000110509F4FBC00031110531F520E3F21241
:100D700086C0AD81BE818C918F7D883509F0E2C03F
:100D80001196FC9011971296AD83BE83EE2DE26012
:100D900000E110E0812C912CA12C48E0B42E29C058
:100DA0003BE2F31207C0AD81BE81FC90F5013296A3
:100DB000ED83FE83E12CD3CF0830110509F461C027
:100DC0000CF054C0EE2D812C912CA12C50E4B52EAA
:100DD0000230110571F060E070E080E090E8980169
:100DE000012E000C440B550B0E94490649015A0183
:100DF000EE2D20E060E070E0CB012801012E000C18
:100E000066087708F0EDFF0DFA3058F03FEB3F0D24
:100E1000F9EC3A3128F03FE93F0D3A31C8F5F9EAEB
:100E2000FF0DF0171106A4F527FD19C086169706C9
:100E3000A806B90698F0A30192010E94D907698318
:100E40007A838B839C836F0F711D811D911D21E01F
:100E5000613071058105B0E89B0708F02FEF4D81E7
:100E60005E81DA01FD90AD83BE83CCCFEE2D0A30DA
:100E7000110509F47AC00031110509F0ACCFEE2D4F
:100E800089CFEE2D812C912CA12C20E1B22EB1CF57
:100E9000C114D10449F0222389F14D815E81415072
:100EA0005109F6014083518327FF30C06E2D70E059
:100EB00090E080E0615071098109904822E230E0C1
:100EC0002093372130933821462F372F282F642F36
:100ED000732F822F2696CDBFDEBFDF91CF911F915A
:100EE0000F91FF90EF90DF90CF90BF90AF909F90C9
:100EF0008F907F906F905F904F900895E1FF06C0B4
:100F0000ED81FE813297D601ED93FC93EE2041F006
:100F100090958095709561957F4F8F4F9F4FD4CF5F
:100F200097FFD2CF82E290E08093372190933821CF
:100F30006FEF7FEF8FEF9FE7C7CF40E030E020E01B
:100F400090E0C5CF90E3F92E0115110509F034CFDB
:100F5000EE2D30E3F32E08E010E094CFF0E3FF161F
:100F600009F407CFEE2D0AE010E08CEC882E982CC7
:100F7000A82C8CE0B82E3DCF91110C94D60780326E
:100F800019F089508550C8F7089591110895815638
:100F90008A5108F4805285580895FB01DC018D9137
:100FA000019080190110D9F3990B0895992788278A
:100FB0000895DB018F939F930E94E907BF91AF9142
:100FC000A29F800D911DA39F900DB29F900D1124A3
:100FD00008950E94F407A59F900DB49F900DA49FC3
:100FE000800D911D11240895A29FB001B39FC001EF
:100FF000A39F700D811D1124911DB29F700D811D45
:0A1000001124911D0895F894FFCF0C
:10100A0000C201000100000000537461727475701F
:10101A00204F4B0D0A00537461727475702046415B
:10102A00494C534146450D0A000D0A2D2D2D2058D5
:10103A004D45474120504D2053797374656D202DDD
:10104A002D2D0D0A005343530053434C0053435470
:10105A0000534352004341004350004F4E004F4655
:10106A000050410050430050460052410052430094
:10107A00524600525300525400525A0057520053DB
:10108A004400534C00534F005353005354005356DB
:10109A0000535A00492045204D2051205520582000
:1010AA005B205E206120642067206A206D2070200A
:1010BA007320762079207C207F208220852088203A
:0610CA008B208E20912016
:00000001FF
